{
  "_format": "hh-sol-artifact-1",
  "contractName": "InvestmentRecord",
  "sourceName": "contracts/InvestmentForm.sol",
  "abi": [
    {
      "inputs": [
        {
          "internalType": "uint256",
          "name": "index",
          "type": "uint256"
        },
        {
          "internalType": "string",
          "name": "_companySignatureHash",
          "type": "string"
        }
      ],
      "name": "addCompanySignature",
      "outputs": [],
      "stateMutability": "nonpayable",
      "type": "function"
    },
    {
      "inputs": [
        {
          "internalType": "uint256",
          "name": "index",
          "type": "uint256"
        }
      ],
      "name": "getInvestment",
      "outputs": [
        {
          "internalType": "string",
          "name": "investorName",
          "type": "string"
        },
        {
          "internalType": "string",
          "name": "companyName",
          "type": "string"
        },
        {
          "internalType": "string",
          "name": "agreementURL",
          "type": "string"
        },
        {
          "internalType": "string",
          "name": "investorSignatureHash",
          "type": "string"
        },
        {
          "internalType": "string",
          "name": "companySignatureHash",
          "type": "string"
        },
        {
          "internalType": "uint256",
          "name": "timestamp",
          "type": "uint256"
        }
      ],
      "stateMutability": "view",
      "type": "function"
    },
    {
      "inputs": [],
      "name": "getInvestmentsCount",
      "outputs": [
        {
          "internalType": "uint256",
          "name": "",
          "type": "uint256"
        }
      ],
      "stateMutability": "view",
      "type": "function"
    },
    {
      "inputs": [
        {
          "internalType": "uint256",
          "name": "",
          "type": "uint256"
        }
      ],
      "name": "investments",
      "outputs": [
        {
          "internalType": "string",
          "name": "investorName",
          "type": "string"
        },
        {
          "internalType": "string",
          "name": "companyName",
          "type": "string"
        },
        {
          "internalType": "string",
          "name": "agreementURL",
          "type": "string"
        },
        {
          "internalType": "string",
          "name": "investorSignatureHash",
          "type": "string"
        },
        {
          "internalType": "string",
          "name": "companySignatureHash",
          "type": "string"
        },
        {
          "internalType": "uint256",
          "name": "timestamp",
          "type": "uint256"
        }
      ],
      "stateMutability": "view",
      "type": "function"
    },
    {
      "inputs": [
        {
          "internalType": "string",
          "name": "_investorName",
          "type": "string"
        },
        {
          "internalType": "string",
          "name": "_companyName",
          "type": "string"
        },
        {
          "internalType": "string",
          "name": "_agreementURL",
          "type": "string"
        },
        {
          "internalType": "string",
          "name": "_investorSignatureHash",
          "type": "string"
        }
      ],
      "name": "recordInvestment",
      "outputs": [],
      "stateMutability": "nonpayable",
      "type": "function"
    }
  ],
  "bytecode": "0x608060405234801561001057600080fd5b50610eed806100206000396000f3fe608060405234801561001057600080fd5b50600436106100575760003560e01c806322ae634f1461005c57806337ea2998146100915780636e606f48146100af578063a202e42f146100cb578063fd345c8a146100e7575b600080fd5b61007660048036038101906100719190610b72565b61011c565b60405161008896959493929190610c77565b60405180910390f35b6100996104da565b6040516100a69190610d1b565b60405180910390f35b6100c960048036038101906100c49190610aaf565b6104e6565b005b6100e560048036038101906100e09190610b9b565b6105f0565b005b61010160048036038101906100fc9190610b72565b61069b565b60405161011396959493929190610c77565b60405180910390f35b606080606080606060008080549050871061016c576040517f08c379a000000000000000000000000000000000000000000000000000000000815260040161016390610cfb565b60405180910390fd5b60008088815481106101a7577f4e487b7100000000000000000000000000000000000000000000000000000000600052603260045260246000fd5b90600052602060002090600602016040518060c00160405290816000820180546101d090610dff565b80601f01602080910402602001604051908101604052809291908181526020018280546101fc90610dff565b80156102495780601f1061021e57610100808354040283529160200191610249565b820191906000526020600020905b81548152906001019060200180831161022c57829003601f168201915b5050505050815260200160018201805461026290610dff565b80601f016020809104026020016040519081016040528092919081815260200182805461028e90610dff565b80156102db5780601f106102b0576101008083540402835291602001916102db565b820191906000526020600020905b8154815290600101906020018083116102be57829003601f168201915b505050505081526020016002820180546102f490610dff565b80601f016020809104026020016040519081016040528092919081815260200182805461032090610dff565b801561036d5780601f106103425761010080835404028352916020019161036d565b820191906000526020600020905b81548152906001019060200180831161035057829003601f168201915b5050505050815260200160038201805461038690610dff565b80601f01602080910402602001604051908101604052809291908181526020018280546103b290610dff565b80156103ff5780601f106103d4576101008083540402835291602001916103ff565b820191906000526020600020905b8154815290600101906020018083116103e257829003601f168201915b5050505050815260200160048201805461041890610dff565b80601f016020809104026020016040519081016040528092919081815260200182805461044490610dff565b80156104915780601f1061046657610100808354040283529160200191610491565b820191906000526020600020905b81548152906001019060200180831161047457829003601f168201915b505050505081526020016005820154815250509050806000015181602001518260400151836060015184608001518560a001519650965096509650965096505091939550919395565b60008080549050905090565b60006040518060c00160405280868152602001858152602001848152602001838152602001604051806020016040528060008152508152602001428152509080600181540180825580915050600190039060005260206000209060060201600090919091909150600082015181600001908051906020019061056992919061098f565b50602082015181600101908051906020019061058692919061098f565b5060408201518160020190805190602001906105a392919061098f565b5060608201518160030190805190602001906105c092919061098f565b5060808201518160040190805190602001906105dd92919061098f565b5060a08201518160050155505050505050565b6000805490508210610637576040517f08c379a000000000000000000000000000000000000000000000000000000000815260040161062e90610cfb565b60405180910390fd5b8060008381548110610672577f4e487b7100000000000000000000000000000000000000000000000000000000600052603260045260246000fd5b9060005260206000209060060201600401908051906020019061069692919061098f565b505050565b600081815481106106ab57600080fd5b90600052602060002090600602016000915090508060000180546106ce90610dff565b80601f01602080910402602001604051908101604052809291908181526020018280546106fa90610dff565b80156107475780601f1061071c57610100808354040283529160200191610747565b820191906000526020600020905b81548152906001019060200180831161072a57829003601f168201915b50505050509080600101805461075c90610dff565b80601f016020809104026020016040519081016040528092919081815260200182805461078890610dff565b80156107d55780601f106107aa576101008083540402835291602001916107d5565b820191906000526020600020905b8154815290600101906020018083116107b857829003601f168201915b5050505050908060020180546107ea90610dff565b80601f016020809104026020016040519081016040528092919081815260200182805461081690610dff565b80156108635780601f1061083857610100808354040283529160200191610863565b820191906000526020600020905b81548152906001019060200180831161084657829003601f168201915b50505050509080600301805461087890610dff565b80601f01602080910402602001604051908101604052809291908181526020018280546108a490610dff565b80156108f15780601f106108c6576101008083540402835291602001916108f1565b820191906000526020600020905b8154815290600101906020018083116108d457829003601f168201915b50505050509080600401805461090690610dff565b80601f016020809104026020016040519081016040528092919081815260200182805461093290610dff565b801561097f5780601f106109545761010080835404028352916020019161097f565b820191906000526020600020905b81548152906001019060200180831161096257829003601f168201915b5050505050908060050154905086565b82805461099b90610dff565b90600052602060002090601f0160209004810192826109bd5760008555610a04565b82601f106109d657805160ff1916838001178555610a04565b82800160010185558215610a04579182015b82811115610a035782518255916020019190600101906109e8565b5b509050610a119190610a15565b5090565b5b80821115610a2e576000816000905550600101610a16565b5090565b6000610a45610a4084610d67565b610d36565b905082815260208101848484011115610a5d57600080fd5b610a68848285610dbd565b509392505050565b600082601f830112610a8157600080fd5b8135610a91848260208601610a32565b91505092915050565b600081359050610aa981610ea0565b92915050565b60008060008060808587031215610ac557600080fd5b600085013567ffffffffffffffff811115610adf57600080fd5b610aeb87828801610a70565b945050602085013567ffffffffffffffff811115610b0857600080fd5b610b1487828801610a70565b935050604085013567ffffffffffffffff811115610b3157600080fd5b610b3d87828801610a70565b925050606085013567ffffffffffffffff811115610b5a57600080fd5b610b6687828801610a70565b91505092959194509250565b600060208284031215610b8457600080fd5b6000610b9284828501610a9a565b91505092915050565b60008060408385031215610bae57600080fd5b6000610bbc85828601610a9a565b925050602083013567ffffffffffffffff811115610bd957600080fd5b610be585828601610a70565b9150509250929050565b6000610bfa82610d97565b610c048185610da2565b9350610c14818560208601610dcc565b610c1d81610e8f565b840191505092915050565b6000610c35600d83610da2565b91507f496e76616c696420696e646578000000000000000000000000000000000000006000830152602082019050919050565b610c7181610db3565b82525050565b600060c0820190508181036000830152610c918189610bef565b90508181036020830152610ca58188610bef565b90508181036040830152610cb98187610bef565b90508181036060830152610ccd8186610bef565b90508181036080830152610ce18185610bef565b9050610cf060a0830184610c68565b979650505050505050565b60006020820190508181036000830152610d1481610c28565b9050919050565b6000602082019050610d306000830184610c68565b92915050565b6000604051905081810181811067ffffffffffffffff82111715610d5d57610d5c610e60565b5b8060405250919050565b600067ffffffffffffffff821115610d8257610d81610e60565b5b601f19601f8301169050602081019050919050565b600081519050919050565b600082825260208201905092915050565b6000819050919050565b82818337600083830152505050565b60005b83811015610dea578082015181840152602081019050610dcf565b83811115610df9576000848401525b50505050565b60006002820490506001821680610e1757607f821691505b60208210811415610e2b57610e2a610e31565b5b50919050565b7f4e487b7100000000000000000000000000000000000000000000000000000000600052602260045260246000fd5b7f4e487b7100000000000000000000000000000000000000000000000000000000600052604160045260246000fd5b6000601f19601f8301169050919050565b610ea981610db3565b8114610eb457600080fd5b5056fea2646970667358221220e6ac107b544d7c9876f2def245b154643d382520bcf8919cf1800f24a98b075964736f6c63430008000033",
  "linkReferences": {},
  "deployedLinkReferences": {}
}